{"abi":[{"type":"constructor","inputs":[],"stateMutability":"nonpayable"},{"type":"function","name":"ADMIN_ROLE","inputs":[],"outputs":[{"name":"","type":"bytes32","internalType":"bytes32"}],"stateMutability":"view"},{"type":"function","name":"AUDITOR_ROLE","inputs":[],"outputs":[{"name":"","type":"bytes32","internalType":"bytes32"}],"stateMutability":"view"},{"type":"function","name":"DATA_WRITER_ROLE","inputs":[],"outputs":[{"name":"","type":"bytes32","internalType":"bytes32"}],"stateMutability":"view"},{"type":"function","name":"DEFAULT_ADMIN_ROLE","inputs":[],"outputs":[{"name":"","type":"bytes32","internalType":"bytes32"}],"stateMutability":"view"},{"type":"function","name":"FLEET_OPERATOR_ROLE","inputs":[],"outputs":[{"name":"","type":"bytes32","internalType":"bytes32"}],"stateMutability":"view"},{"type":"function","name":"MANUFACTURER_ROLE","inputs":[],"outputs":[{"name":"","type":"bytes32","internalType":"bytes32"}],"stateMutability":"view"},{"type":"function","name":"OEM_ROLE","inputs":[],"outputs":[{"name":"","type":"bytes32","internalType":"bytes32"}],"stateMutability":"view"},{"type":"function","name":"UPGRADE_INTERFACE_VERSION","inputs":[],"outputs":[{"name":"","type":"string","internalType":"string"}],"stateMutability":"view"},{"type":"function","name":"batchStoreParameters","inputs":[{"name":"bin","type":"bytes32","internalType":"bytes32"},{"name":"updates","type":"tuple[]","internalType":"struct DataVault.ParameterUpdate[]","components":[{"name":"key","type":"bytes32","internalType":"bytes32"},{"name":"value","type":"bytes32","internalType":"bytes32"},{"name":"category","type":"uint8","internalType":"enum DataVault.ParameterCategory"}]}],"outputs":[],"stateMutability":"nonpayable"},{"type":"function","name":"batteryRegistry","inputs":[],"outputs":[{"name":"","type":"address","internalType":"contract BatteryRegistry"}],"stateMutability":"view"},{"type":"function","name":"criticalEventCount","inputs":[{"name":"","type":"bytes32","internalType":"bytes32"}],"outputs":[{"name":"","type":"uint256","internalType":"uint256"}],"stateMutability":"view"},{"type":"function","name":"deleteParameter","inputs":[{"name":"bin","type":"bytes32","internalType":"bytes32"},{"name":"parameterKey","type":"bytes32","internalType":"bytes32"}],"outputs":[],"stateMutability":"nonpayable"},{"type":"function","name":"getBatchParameters","inputs":[{"name":"bin","type":"bytes32","internalType":"bytes32"},{"name":"keys","type":"bytes32[]","internalType":"bytes32[]"}],"outputs":[{"name":"values","type":"bytes32[]","internalType":"bytes32[]"}],"stateMutability":"view"},{"type":"function","name":"getBatteryParameters","inputs":[{"name":"bin","type":"bytes32","internalType":"bytes32"}],"outputs":[{"name":"","type":"bytes32[]","internalType":"bytes32[]"}],"stateMutability":"view"},{"type":"function","name":"getCriticalEvents","inputs":[{"name":"bin","type":"bytes32","internalType":"bytes32"},{"name":"startIndex","type":"uint256","internalType":"uint256"},{"name":"count","type":"uint256","internalType":"uint256"}],"outputs":[{"name":"","type":"tuple[]","internalType":"struct DataVault.CriticalEvent[]","components":[{"name":"eventType","type":"uint8","internalType":"uint8"},{"name":"severity","type":"uint8","internalType":"uint8"},{"name":"description","type":"string","internalType":"string"},{"name":"temperature","type":"int16","internalType":"int16"},{"name":"chargeLevel","type":"uint16","internalType":"uint16"},{"name":"location","type":"string","internalType":"string"},{"name":"eventDate","type":"uint64","internalType":"uint64"},{"name":"recordedAt","type":"uint64","internalType":"uint64"},{"name":"recordedBy","type":"address","internalType":"address"}]}],"stateMutability":"view"},{"type":"function","name":"getLatestTelemetry","inputs":[{"name":"bin","type":"bytes32","internalType":"bytes32"}],"outputs":[{"name":"","type":"tuple","internalType":"struct DataVault.TelemetryRecord","components":[{"name":"soc","type":"uint16","internalType":"uint16"},{"name":"soh","type":"uint16","internalType":"uint16"},{"name":"mileage","type":"uint32","internalType":"uint32"},{"name":"chargeCycles","type":"uint32","internalType":"uint32"},{"name":"avgTemperature","type":"int16","internalType":"int16"},{"name":"maxTemperature","type":"int16","internalType":"int16"},{"name":"depthOfDischarge","type":"uint16","internalType":"uint16"},{"name":"chargeRate","type":"uint16","internalType":"uint16"},{"name":"timestamp","type":"uint64","internalType":"uint64"},{"name":"recordedBy","type":"address","internalType":"address"}]}],"stateMutability":"view"},{"type":"function","name":"getMaintenanceRecords","inputs":[{"name":"bin","type":"bytes32","internalType":"bytes32"},{"name":"startIndex","type":"uint256","internalType":"uint256"},{"name":"count","type":"uint256","internalType":"uint256"}],"outputs":[{"name":"","type":"tuple[]","internalType":"struct DataVault.MaintenanceRecord[]","components":[{"name":"maintenanceType","type":"uint8","internalType":"uint8"},{"name":"description","type":"string","internalType":"string"},{"name":"componentsReplaced","type":"string","internalType":"string"},{"name":"bmsUpdate","type":"string","internalType":"string"},{"name":"technicianId","type":"string","internalType":"string"},{"name":"serviceDate","type":"uint64","internalType":"uint64"},{"name":"recordedAt","type":"uint64","internalType":"uint64"},{"name":"recordedBy","type":"address","internalType":"address"}]}],"stateMutability":"view"},{"type":"function","name":"getParameter","inputs":[{"name":"bin","type":"bytes32","internalType":"bytes32"},{"name":"parameterKey","type":"bytes32","internalType":"bytes32"}],"outputs":[{"name":"","type":"bytes32","internalType":"bytes32"}],"stateMutability":"view"},{"type":"function","name":"getParameterWithMetadata","inputs":[{"name":"bin","type":"bytes32","internalType":"bytes32"},{"name":"parameterKey","type":"bytes32","internalType":"bytes32"}],"outputs":[{"name":"value","type":"bytes32","internalType":"bytes32"},{"name":"metadata","type":"tuple","internalType":"struct DataVault.ParameterMetadata","components":[{"name":"category","type":"uint8","internalType":"enum DataVault.ParameterCategory"},{"name":"exists","type":"bool","internalType":"bool"},{"name":"lastUpdated","type":"uint64","internalType":"uint64"},{"name":"lastUpdatedBy","type":"address","internalType":"address"}]}],"stateMutability":"view"},{"type":"function","name":"getParametersByCategory","inputs":[{"name":"bin","type":"bytes32","internalType":"bytes32"},{"name":"category","type":"uint8","internalType":"enum DataVault.ParameterCategory"}],"outputs":[{"name":"keys","type":"bytes32[]","internalType":"bytes32[]"},{"name":"values","type":"bytes32[]","internalType":"bytes32[]"}],"stateMutability":"view"},{"type":"function","name":"getRoleAdmin","inputs":[{"name":"role","type":"bytes32","internalType":"bytes32"}],"outputs":[{"name":"","type":"bytes32","internalType":"bytes32"}],"stateMutability":"view"},{"type":"function","name":"getTelemetryRecords","inputs":[{"name":"bin","type":"bytes32","internalType":"bytes32"},{"name":"startIndex","type":"uint256","internalType":"uint256"},{"name":"count","type":"uint256","internalType":"uint256"}],"outputs":[{"name":"","type":"tuple[]","internalType":"struct DataVault.TelemetryRecord[]","components":[{"name":"soc","type":"uint16","internalType":"uint16"},{"name":"soh","type":"uint16","internalType":"uint16"},{"name":"mileage","type":"uint32","internalType":"uint32"},{"name":"chargeCycles","type":"uint32","internalType":"uint32"},{"name":"avgTemperature","type":"int16","internalType":"int16"},{"name":"maxTemperature","type":"int16","internalType":"int16"},{"name":"depthOfDischarge","type":"uint16","internalType":"uint16"},{"name":"chargeRate","type":"uint16","internalType":"uint16"},{"name":"timestamp","type":"uint64","internalType":"uint64"},{"name":"recordedBy","type":"address","internalType":"address"}]}],"stateMutability":"view"},{"type":"function","name":"grantAuditorRole","inputs":[{"name":"account","type":"address","internalType":"address"}],"outputs":[],"stateMutability":"nonpayable"},{"type":"function","name":"grantDataWriterRole","inputs":[{"name":"account","type":"address","internalType":"address"}],"outputs":[],"stateMutability":"nonpayable"},{"type":"function","name":"grantFleetOperatorRole","inputs":[{"name":"account","type":"address","internalType":"address"}],"outputs":[],"stateMutability":"nonpayable"},{"type":"function","name":"grantManufacturerRole","inputs":[{"name":"account","type":"address","internalType":"address"}],"outputs":[],"stateMutability":"nonpayable"},{"type":"function","name":"grantOEMRole","inputs":[{"name":"account","type":"address","internalType":"address"}],"outputs":[],"stateMutability":"nonpayable"},{"type":"function","name":"grantRole","inputs":[{"name":"role","type":"bytes32","internalType":"bytes32"},{"name":"account","type":"address","internalType":"address"}],"outputs":[],"stateMutability":"nonpayable"},{"type":"function","name":"hasRole","inputs":[{"name":"role","type":"bytes32","internalType":"bytes32"},{"name":"account","type":"address","internalType":"address"}],"outputs":[{"name":"","type":"bool","internalType":"bool"}],"stateMutability":"view"},{"type":"function","name":"initialize","inputs":[{"name":"admin","type":"address","internalType":"address"},{"name":"_batteryRegistry","type":"address","internalType":"address"}],"outputs":[],"stateMutability":"nonpayable"},{"type":"function","name":"maintenanceCount","inputs":[{"name":"","type":"bytes32","internalType":"bytes32"}],"outputs":[{"name":"","type":"uint256","internalType":"uint256"}],"stateMutability":"view"},{"type":"function","name":"parameterCount","inputs":[{"name":"","type":"bytes32","internalType":"bytes32"}],"outputs":[{"name":"","type":"uint256","internalType":"uint256"}],"stateMutability":"view"},{"type":"function","name":"parameterExists","inputs":[{"name":"bin","type":"bytes32","internalType":"bytes32"},{"name":"parameterKey","type":"bytes32","internalType":"bytes32"}],"outputs":[{"name":"","type":"bool","internalType":"bool"}],"stateMutability":"view"},{"type":"function","name":"proxiableUUID","inputs":[],"outputs":[{"name":"","type":"bytes32","internalType":"bytes32"}],"stateMutability":"view"},{"type":"function","name":"recordCriticalEvent","inputs":[{"name":"bin","type":"bytes32","internalType":"bytes32"},{"name":"eventType","type":"uint8","internalType":"uint8"},{"name":"severity","type":"uint8","internalType":"uint8"},{"name":"description","type":"string","internalType":"string"},{"name":"temperature","type":"int16","internalType":"int16"},{"name":"chargeLevel","type":"uint16","internalType":"uint16"},{"name":"location","type":"string","internalType":"string"},{"name":"eventDate","type":"uint64","internalType":"uint64"}],"outputs":[],"stateMutability":"nonpayable"},{"type":"function","name":"recordMaintenance","inputs":[{"name":"bin","type":"bytes32","internalType":"bytes32"},{"name":"maintenanceType","type":"uint8","internalType":"uint8"},{"name":"description","type":"string","internalType":"string"},{"name":"componentsReplaced","type":"string","internalType":"string"},{"name":"bmsUpdate","type":"string","internalType":"string"},{"name":"technicianId","type":"string","internalType":"string"},{"name":"serviceDate","type":"uint64","internalType":"uint64"}],"outputs":[],"stateMutability":"nonpayable"},{"type":"function","name":"recordTelemetry","inputs":[{"name":"bin","type":"bytes32","internalType":"bytes32"},{"name":"soc","type":"uint16","internalType":"uint16"},{"name":"soh","type":"uint16","internalType":"uint16"},{"name":"mileage","type":"uint32","internalType":"uint32"},{"name":"chargeCycles","type":"uint32","internalType":"uint32"},{"name":"avgTemperature","type":"int16","internalType":"int16"},{"name":"maxTemperature","type":"int16","internalType":"int16"},{"name":"depthOfDischarge","type":"uint16","internalType":"uint16"},{"name":"chargeRate","type":"uint16","internalType":"uint16"}],"outputs":[],"stateMutability":"nonpayable"},{"type":"function","name":"renounceRole","inputs":[{"name":"role","type":"bytes32","internalType":"bytes32"},{"name":"callerConfirmation","type":"address","internalType":"address"}],"outputs":[],"stateMutability":"nonpayable"},{"type":"function","name":"revokeRole","inputs":[{"name":"role","type":"bytes32","internalType":"bytes32"},{"name":"account","type":"address","internalType":"address"}],"outputs":[],"stateMutability":"nonpayable"},{"type":"function","name":"setBatteryRegistry","inputs":[{"name":"newRegistry","type":"address","internalType":"address"}],"outputs":[],"stateMutability":"nonpayable"},{"type":"function","name":"storeParameter","inputs":[{"name":"bin","type":"bytes32","internalType":"bytes32"},{"name":"parameterKey","type":"bytes32","internalType":"bytes32"},{"name":"value","type":"bytes32","internalType":"bytes32"},{"name":"category","type":"uint8","internalType":"enum DataVault.ParameterCategory"}],"outputs":[],"stateMutability":"nonpayable"},{"type":"function","name":"supportsInterface","inputs":[{"name":"interfaceId","type":"bytes4","internalType":"bytes4"}],"outputs":[{"name":"","type":"bool","internalType":"bool"}],"stateMutability":"view"},{"type":"function","name":"telemetryCount","inputs":[{"name":"","type":"bytes32","internalType":"bytes32"}],"outputs":[{"name":"","type":"uint256","internalType":"uint256"}],"stateMutability":"view"},{"type":"function","name":"totalParametersStored","inputs":[],"outputs":[{"name":"","type":"uint256","internalType":"uint256"}],"stateMutability":"view"},{"type":"function","name":"upgradeToAndCall","inputs":[{"name":"newImplementation","type":"address","internalType":"address"},{"name":"data","type":"bytes","internalType":"bytes"}],"outputs":[],"stateMutability":"payable"},{"type":"event","name":"BatchParametersStored","inputs":[{"name":"bin","type":"bytes32","indexed":true,"internalType":"bytes32"},{"name":"parameterCount","type":"uint256","indexed":false,"internalType":"uint256"},{"name":"updatedBy","type":"address","indexed":true,"internalType":"address"},{"name":"timestamp","type":"uint64","indexed":false,"internalType":"uint64"}],"anonymous":false},{"type":"event","name":"BatteryRegistryUpdated","inputs":[{"name":"oldRegistry","type":"address","indexed":true,"internalType":"address"},{"name":"newRegistry","type":"address","indexed":true,"internalType":"address"},{"name":"updatedBy","type":"address","indexed":false,"internalType":"address"}],"anonymous":false},{"type":"event","name":"CriticalEventRecorded","inputs":[{"name":"bin","type":"bytes32","indexed":true,"internalType":"bytes32"},{"name":"recordIndex","type":"uint256","indexed":true,"internalType":"uint256"},{"name":"eventType","type":"uint8","indexed":false,"internalType":"uint8"},{"name":"severity","type":"uint8","indexed":false,"internalType":"uint8"},{"name":"eventDate","type":"uint64","indexed":false,"internalType":"uint64"},{"name":"recordedBy","type":"address","indexed":true,"internalType":"address"},{"name":"timestamp","type":"uint64","indexed":false,"internalType":"uint64"}],"anonymous":false},{"type":"event","name":"Initialized","inputs":[{"name":"version","type":"uint64","indexed":false,"internalType":"uint64"}],"anonymous":false},{"type":"event","name":"MaintenanceRecorded","inputs":[{"name":"bin","type":"bytes32","indexed":true,"internalType":"bytes32"},{"name":"recordIndex","type":"uint256","indexed":true,"internalType":"uint256"},{"name":"maintenanceType","type":"uint8","indexed":false,"internalType":"uint8"},{"name":"technicianId","type":"string","indexed":false,"internalType":"string"},{"name":"serviceDate","type":"uint64","indexed":false,"internalType":"uint64"},{"name":"recordedBy","type":"address","indexed":true,"internalType":"address"},{"name":"timestamp","type":"uint64","indexed":false,"internalType":"uint64"}],"anonymous":false},{"type":"event","name":"ParameterDeleted","inputs":[{"name":"bin","type":"bytes32","indexed":true,"internalType":"bytes32"},{"name":"parameterKey","type":"bytes32","indexed":true,"internalType":"bytes32"},{"name":"deletedBy","type":"address","indexed":true,"internalType":"address"}],"anonymous":false},{"type":"event","name":"ParameterStored","inputs":[{"name":"bin","type":"bytes32","indexed":true,"internalType":"bytes32"},{"name":"parameterKey","type":"bytes32","indexed":true,"internalType":"bytes32"},{"name":"value","type":"bytes32","indexed":false,"internalType":"bytes32"},{"name":"category","type":"uint8","indexed":true,"internalType":"enum DataVault.ParameterCategory"},{"name":"updatedBy","type":"address","indexed":false,"internalType":"address"},{"name":"timestamp","type":"uint64","indexed":false,"internalType":"uint64"}],"anonymous":false},{"type":"event","name":"ParameterUpdated","inputs":[{"name":"bin","type":"bytes32","indexed":true,"internalType":"bytes32"},{"name":"parameterKey","type":"bytes32","indexed":true,"internalType":"bytes32"},{"name":"oldValue","type":"bytes32","indexed":false,"internalType":"bytes32"},{"name":"newValue","type":"bytes32","indexed":false,"internalType":"bytes32"},{"name":"updatedBy","type":"address","indexed":false,"internalType":"address"},{"name":"timestamp","type":"uint64","indexed":false,"internalType":"uint64"}],"anonymous":false},{"type":"event","name":"RoleAdminChanged","inputs":[{"name":"role","type":"bytes32","indexed":true,"internalType":"bytes32"},{"name":"previousAdminRole","type":"bytes32","indexed":true,"internalType":"bytes32"},{"name":"newAdminRole","type":"bytes32","indexed":true,"internalType":"bytes32"}],"anonymous":false},{"type":"event","name":"RoleGranted","inputs":[{"name":"role","type":"bytes32","indexed":true,"internalType":"bytes32"},{"name":"account","type":"address","indexed":true,"internalType":"address"},{"name":"sender","type":"address","indexed":true,"internalType":"address"}],"anonymous":false},{"type":"event","name":"RoleRevoked","inputs":[{"name":"role","type":"bytes32","indexed":true,"internalType":"bytes32"},{"name":"account","type":"address","indexed":true,"internalType":"address"},{"name":"sender","type":"address","indexed":true,"internalType":"address"}],"anonymous":false},{"type":"event","name":"TelemetryRecorded","inputs":[{"name":"bin","type":"bytes32","indexed":true,"internalType":"bytes32"},{"name":"recordIndex","type":"uint256","indexed":true,"internalType":"uint256"},{"name":"soh","type":"uint16","indexed":false,"internalType":"uint16"},{"name":"soc","type":"uint16","indexed":false,"internalType":"uint16"},{"name":"mileage","type":"uint32","indexed":false,"internalType":"uint32"},{"name":"chargeCycles","type":"uint32","indexed":false,"internalType":"uint32"},{"name":"recordedBy","type":"address","indexed":true,"internalType":"address"},{"name":"timestamp","type":"uint64","indexed":false,"internalType":"uint64"}],"anonymous":false},{"type":"event","name":"Upgraded","inputs":[{"name":"implementation","type":"address","indexed":true,"internalType":"address"}],"anonymous":false},{"type":"error","name":"AccessControlBadConfirmation","inputs":[]},{"type":"error","name":"AccessControlUnauthorizedAccount","inputs":[{"name":"account","type":"address","internalType":"address"},{"name":"neededRole","type":"bytes32","internalType":"bytes32"}]},{"type":"error","name":"AddressEmptyCode","inputs":[{"name":"target","type":"address","internalType":"address"}]},{"type":"error","name":"ERC1967InvalidImplementation","inputs":[{"name":"implementation","type":"address","internalType":"address"}]},{"type":"error","name":"ERC1967NonPayable","inputs":[]},{"type":"error","name":"FailedCall","inputs":[]},{"type":"error","name":"InvalidInitialization","inputs":[]},{"type":"error","name":"NotInitializing","inputs":[]},{"type":"error","name":"UUPSUnauthorizedCallContext","inputs":[]},{"type":"error","name":"UUPSUnsupportedProxiableUUID","inputs":[{"name":"slot","type":"bytes32","internalType":"bytes32"}]}],"bytecode":{"object":"0x60a080604052346100c257306080525f51602061491c5f395f51905f525460ff8160401c166100b3576002600160401b03196001600160401b03821601610060575b60405161485590816100c7823960805181818161284a01526129750152f35b6001600160401b0319166001600160401b039081175f51602061491c5f395f51905f525581527fc7f505b2f371ae2175ee4913f4499e1f2633a7b5936321eed1cdaeb6115181d290602090a15f80610041565b63f92ee8a960e01b5f5260045ffd5b5f80fdfe6080806040526004361015610012575f80fd5b5f3560e01c90816301ffc9a7146138595750806303117eb5146138325780631354208814613770578063248a9ca3146137315780632e4743ef146134385780632f2ff15d146133ee57806336568abe146133aa57806339646291146131865780633beb1e1814612ea1578063401d064a14612daf578063485cc95514612bab5780634e14e50714612af15780634f1ef2861461292657806350c17b101461289e57806352d1902d1461283857806355c4281e146127b057806356798d671461259057806367ceef51146125735780636e1d616e1461253957806375b238fc146124ff5780637da60067146124d55780637dc49ab01461231a57806383ca649b146122f35780638428ed711461226b57806390cbeb5f1461224157806391d14854146121ec578063965288b0146121b257806396da16c814611ec65780639754bca3146115bf57806399f533ae146114b1578063a217fddf14611497578063a55fb7d21461145d578063a5e4e10014611433578063ad3cb1cc146113e8578063c184ec3a14611373578063c4b991431461133c578063d09b9d5114610ea3578063d547741f14610e54578063d6a7872614610701578063df1474ab146106c7578063ef3808611461063d578063f6c5744714610489578063f7c4f3f814610305578063f93b03b4146102db5763ff4d2e251461020b575f80fd5b346102d75761021936613a1e565b906024602060018060a01b035f541660405192838092637461976d60e01b82528660048301525afa80156102cc57610258915f9161029d575b50613b1f565b805f52600260205260405f20825f5260205261027d60ff60405f205460081c16613e34565b5f52600160205260405f20905f52602052602060405f2054604051908152f35b6102bf915060203d6020116102c5575b6102b781836139b8565b810190613b07565b5f610252565b503d6102ad565b6040513d5f823e3d90fd5b5f80fd5b346102d75760203660031901126102d7576004355f526009602052602060405f2054604051908152f35b346102d75761031336613a1e565b5f606060405161032281613949565b82815282602082015282604082015201526024602060018060a01b035f541660405192838092637461976d60e01b82528760048301525afa80156102cc57610370915f9161046a5750613b1f565b815f52600260205260405f20815f5260205261039560ff60405f205460081c16613e34565b815f52600160205260405f20815f5260205260405f2054915f52600260205260405f20905f5260205260405f2090604051916103d083613949565b546103de60ff821684613c17565b602083019260ff8260081c161515845260408101906001600160401b038360101c168252606081019260018060a01b039060501c168352604051938452519060068210156104565760a0946001600160401b03926020860152511515604085015251166060830152600180841b039051166080820152f35b634e487b7160e01b5f52602160045260245ffd5b610483915060203d6020116102c5576102b781836139b8565b84610252565b346102d7576024610499366138d8565b5f54604051637461976d60e01b815260048101859052939492939260209184919082906001600160a01b03165afa9182156102cc576104ff926104e2915f9161061e5750613b1f565b835f5260066020526104f960405f20548410613c8d565b82613c80565b825f5260066020528160405f20548211610608575b61051d91613cd9565b9061052782613ce6565b9261053560405194856139b8565b828452601f1961054484613ce6565b015f5b8181106105f15750505f5b8381106105aa57846040518091602082016020835281518091526020604084019201905f5b818110610585575050500390f35b9193509160206101408261059c6001948851613a71565b019401910191849392610577565b600190825f5260066020526105d56105cf60405f206105c98488613c80565b90613f47565b50613f60565b6105df8288613d16565b526105ea8187613d16565b5001610552565b6020906105fc613efd565b82828901015201610547565b50505f8281526006602052604090205481610514565b610637915060203d6020116102c5576102b781836139b8565b86610252565b346102d75760203660031901126102d7576106c56106596138ac565b610661613ffb565b7f09dbbc4f4c1777380e818de38ff2b73d55e543b5f4634694a1e9215097fe26a05f525f5160206147c05f395f51905f526020527fc5f5d6eefac11226c8516d58a9f3d1edf60f9d4d148c4bb3632265eafdcaf018546106c0906140b3565b6144d3565b005b346102d7575f3660031901126102d75760206040517f09dbbc4f4c1777380e818de38ff2b73d55e543b5f4634694a1e9215097fe26a08152f35b346102d7576101003660031901126102d75760043561071e613a34565b906044359060ff82168092036102d7576064356001600160401b0381116102d75761074d903690600401613a44565b9093608435948560010b8096036102d75760a4359261ffff84168094036102d75760c4356001600160401b0381116102d75761078d903690600401613a44565b5f9591955060e435946001600160401b0386168096036102d7575f54604051637461976d60e01b8152600481018a905290602090829060249082906001600160a01b03165afa80156102cc576107e9915f91610e355750613b1f565b335f9081525f5160206147405f395f51905f52602052604090205460ff168015610e11575b8015610ded575b15610d955760ff169860078a11610d505760028911610d0b57610839841515613eb1565b6127108311610cc657428611610c81576108966001600160401b034216976108796040519761086789613980565b8d895260208901978d895236916139d9565b9360408801948552606088019384526080880195865236916139d9565b9060a0860191825260c086019387855260e08701938985526101008801963388528b5f52600860205260405f208054600160401b811015610b9e576108e091600182018155613e98565b999099610c6e57518954915161ffff1990921660ff919091161760089190911b61ff001617885551805160018901916001600160401b038211610b9e576109278354613d2a565b601f8111610c29575b50602090601f8311600114610bbd57918061ffff94926109939796945f92610bb2575b50508160011b915f199060031b1c19161790555b6002890192518219845416908316178355511663ffff000082549160101b169063ffff00001916179055565b51805160038601916001600160401b038211610b9e576109b38354613d2a565b601f8111610b59575b50602090601f8311600114610ae55792826001600160401b0393610a36969360059998965f92610ada575b50508160011b915f199060031b1c19161790555b818060048901945116168219845416178355511667ffffffffffffffff60401b82549160401b169067ffffffffffffffff60401b1916179055565b51910180546001600160a01b0319166001600160a01b03929092169190911790555f838152600860205260409020545f19810194908511610ac657835f52600b60205260405f20610a878154613c72565b90556040519586526020860152604085015260608401527f5ec7bcbc093028f74b8d6da3011b9ca1b8f2fea8da47e72d288cc518148a58ab60803394a4005b634e487b7160e01b5f52601160045260245ffd5b015190508f806109e7565b90601f19831691845f52815f20925f5b818110610b41575093610a369693600599989693600193836001600160401b039810610b29575b505050811b0190556109fb565b01515f1960f88460031b161c191690558f8080610b1c565b92936020600181928786015181550195019301610af5565b835f5260205f20601f840160051c81019160208510610b94575b601f0160051c01905b818110610b8957506109bc565b5f8155600101610b7c565b9091508190610b73565b634e487b7160e01b5f52604160045260245ffd5b015190505f80610953565b90601f19831691845f52815f20925f5b818110610c11575092600192859261099399989661ffff989610610bf9575b505050811b019055610967565b01515f1960f88460031b161c191690555f8080610bec565b92936020600181928786015181550195019301610bcd565b835f5260205f20601f840160051c81019160208510610c64575b601f0160051c01905b818110610c595750610930565b5f8155600101610c4c565b9091508190610c43565b634e487b7160e01b5f525f60045260245ffd5b60405162461bcd60e51b815260206004820152601d60248201527f446174615661756c743a20496e76616c6964206576656e7420646174650000006044820152606490fd5b60405162461bcd60e51b815260206004820152601f60248201527f446174615661756c743a20496e76616c696420636861726765206c6576656c006044820152606490fd5b60405162461bcd60e51b815260206004820152601b60248201527f446174615661756c743a20496e76616c696420736576657269747900000000006044820152606490fd5b60405162461bcd60e51b815260206004820152601d60248201527f446174615661756c743a20496e76616c6964206576656e7420747970650000006044820152606490fd5b60405162461bcd60e51b815260206004820152602a60248201527f446174615661756c743a204e6f7420617574686f72697a656420746f207265636044820152696f7264206576656e747360b01b6064820152608490fd5b50335f9081525f5160206147605f395f51905f52602052604090205460ff16610815565b50335f9081525f5160206147e05f395f51905f52602052604090205460ff1661080e565b610e4e915060203d6020116102c5576102b781836139b8565b8c610252565b346102d75760403660031901126102d7576106c5600435610e736138c2565b90610e9e610e99825f525f5160206147c05f395f51905f52602052600160405f20015490565b6140b3565b6145f7565b346102d7576101203660031901126102d75760043560243561ffff81168091036102d7576044359161ffff83168093036102d75760643563ffffffff81168091036102d75760843563ffffffff81168091036102d75760a435918260010b8093036102d75760c435928360010b8094036102d75760e43561ffff81168091036102d757610104359161ffff83168093036102d7575f54604051637461976d60e01b81526004810189905290602090829060249082906001600160a01b03165afa80156102cc57610f79915f9161131d5750613b1f565b335f9081525f5160206147405f395f51905f52602052604090205460ff1680156112f9575b80156112d5575b1561127a5761271088116112355761271089116111f05761271082116111ab576001600160401b0342169560405192610fdd8461399c565b89845260208401948b8652604085019387855260608601918983526080870191825260a0870194855260c0870193845260e087019081526101008701948b86526101208801963388528d5f52600660205260405f208054600160401b811015610b9e5761104f91600182018155613f47565b9a909a610c6e5798518a549951915195519451925196519351975160109290921b63ffff00001661ffff9091166001600160e01b0319909a169990991798909817602094851b67ffffffff000000001617604093841b6bffffffff0000000000000000161761ffff60601b60609290921b919091161761ffff60701b60709590951b949094169390931760809390931b61ffff60801b169290921760909390931b61ffff60901b169290921760a09490941b67ffffffffffffffff60a01b169390931784559051600190930180546001600160a01b0319166001600160a01b03909416939093179092555f86815260069092529020545f19810195908611610ac657845f52600960205260405f206111678154613c72565b905560405196875260208701526040860152606085015260808401527f9f018b0833b906d33341baa9b5e58a81018518c98bcc82cbfcfedb0675ab159860a03394a4005b60405162461bcd60e51b815260206004820152601c60248201527f446174615661756c743a20496e76616c696420446f442076616c7565000000006044820152606490fd5b60405162461bcd60e51b815260206004820152601c60248201527f446174615661756c743a20496e76616c696420534f482076616c7565000000006044820152606490fd5b60405162461bcd60e51b815260206004820152601c60248201527f446174615661756c743a20496e76616c696420534f432076616c7565000000006044820152606490fd5b60405162461bcd60e51b815260206004820152602d60248201527f446174615661756c743a204e6f7420617574686f72697a656420746f2072656360448201526c6f72642074656c656d6574727960981b6064820152608490fd5b50335f9081525f5160206147605f395f51905f52602052604090205460ff16610fa5565b50335f9081525f5160206147e05f395f51905f52602052604090205460ff16610f9e565b611336915060203d6020116102c5576102b781836139b8565b8b610252565b346102d75761134a36613a1e565b905f52600260205260405f20905f52602052602060ff60405f205460081c166040519015158152f35b346102d75760203660031901126102d7576106c561138f6138ac565b611397613ffb565b5f5160206147a05f395f51905f525f525f5160206147c05f395f51905f526020527f12f73be99a4fa0de528366f6ed2e970f4c99424b1b8b7e090f1028dc3880af70546113e3906140b3565b614228565b346102d7575f3660031901126102d75761142f6040516114096040826139b8565b60058152640352e302e360dc1b60208201526040519182916020835260208301906138f2565b0390f35b346102d75760203660031901126102d7576004355f52600a602052602060405f2054604051908152f35b346102d7575f3660031901126102d75760206040517f3c9097c10f7e1eae9b190812e1f9842fb237e9fb2ed43764725aa007bcc1707c8152f35b346102d7575f3660031901126102d75760206040515f8152f35b346102d75760203660031901126102d7576004356114cd613efd565b505f54604051637461976d60e01b81526004810183905290602090829060249082906001600160a01b03165afa80156102cc57611510915f916115a05750613b1f565b805f52600660205260405f20541561155b575f90815260066020526040902080545f198101908111610ac6576105cf61154c9161014093613f47565b6115596040518092613a71565bf35b60405162461bcd60e51b815260206004820152601f60248201527f446174615661756c743a204e6f2074656c656d65747279207265636f726473006044820152606490fd5b6115b9915060203d6020116102c5576102b781836139b8565b83610252565b346102d75760e03660031901126102d7576004356115db613a34565b6044356001600160401b0381116102d7576115fa903690600401613a44565b92906064356001600160401b0381116102d75761161b903690600401613a44565b90916084356001600160401b0381116102d75761163c903690600401613a44565b96909260a4356001600160401b0381116102d75761165e903690600401613a44565b98909560c435986001600160401b038a16809a036102d7575f54604051637461976d60e01b8152600481018b905290602090829060249082906001600160a01b03165afa80156102cc576116b8915f91611ea75750613b1f565b335f9081525f5160206147405f395f51905f52602052604090205460ff168015611e83575b8015611e5f575b15611e025760ff169560048711611db157611700851515613eb1565b8a15611d6257428a11611d1d57611748611757926117396001600160401b034216986040519861172f8a613964565b8b8a5236916139d9565b956020880196875236916139d9565b926040860193845236916139d9565b906060840191825261176a368b896139d9565b6080850190815260a08501928a845260c086019287845260e08701953387528b5f52600760205260405f208054600160401b811015610b9e576117b291600182018155613cfd565b989098610c6e5751885460ff191660ff9190911617885551805160018901916001600160401b038211610b9e5781906117eb8454613d2a565b601f8111611ccd575b50602090601f8311600114611c6a575f92611c5f575b50508160011b915f199060031b1c19161790555b51805160028801916001600160401b038211610b9e5781906118408454613d2a565b601f8111611c0f575b50602090601f8311600114611bac575f92611ba1575b50508160011b915f199060031b1c19161790555b51805160038701916001600160401b038211610b9e5781906118958454613d2a565b601f8111611b51575b50602090601f8311600114611aee575f92611ae3575b50508160011b915f199060031b1c19161790555b51805160048601916001600160401b038211610b9e576118e88354613d2a565b601f8111611a9e575b50602090601f8311600114611a2a5792826001600160401b039361196b969360069998965f92611a1f575b50508160011b915f199060031b1c19161790555b818060058901945116168219845416178355511667ffffffffffffffff60401b82549160401b169067ffffffffffffffff60401b1916179055565b51910180546001600160a01b0319166001600160a01b03929092169190911790555f848152600760205260409020545f19810195908611610ac657867f4c5fb9b893dd939853ad0ac37ef7466b9e2ba47551bed368d8e3ddd97caedf5594865f52600a60205260405f206119df8154613c72565b90556040519485526080602086015281608086015260a08501375f60a088850101526040830152606082015260a0813396601f80199101168101030190a4005b015190505f8061191c565b90601f19831691845f52815f20925f5b818110611a8657509361196b9693600699989693600193836001600160401b039810611a6e575b505050811b019055611930565b01515f1960f88460031b161c191690555f8080611a61565b92936020600181928786015181550195019301611a3a565b835f5260205f20601f840160051c81019160208510611ad9575b601f0160051c01905b818110611ace57506118f1565b5f8155600101611ac1565b9091508190611ab8565b015190508e806118b4565b5f8581528281209350601f198516905b818110611b395750908460019594939210611b21575b505050811b0190556118c8565b01515f1960f88460031b161c191690558e8080611b14565b92936020600181928786015181550195019301611afe565b909150835f5260205f20601f840160051c81019160208510611b97575b90601f859493920160051c01905b818110611b89575061189e565b5f8155849350600101611b7c565b9091508190611b6e565b015190508f8061185f565b5f8581528281209350601f198516905b818110611bf75750908460019594939210611bdf575b505050811b019055611873565b01515f1960f88460031b161c191690558f8080611bd2565b92936020600181928786015181550195019301611bbc565b909150835f5260205f20601f840160051c81019160208510611c55575b90601f859493920160051c01905b818110611c475750611849565b5f8155849350600101611c3a565b9091508190611c2c565b015190505f8061180a565b5f8581528281209350601f198516905b818110611cb55750908460019594939210611c9d575b505050811b01905561181e565b01515f1960f88460031b161c191690555f8080611c90565b92936020600181928786015181550195019301611c7a565b909150835f5260205f20601f840160051c81019160208510611d13575b90601f859493920160051c01905b818110611d0557506117f4565b5f8155849350600101611cf8565b9091508190611cea565b60405162461bcd60e51b815260206004820152601f60248201527f446174615661756c743a20496e76616c696420736572766963652064617465006044820152606490fd5b60405162461bcd60e51b815260206004820152602160248201527f446174615661756c743a20546563686e696369616e20494420726571756972656044820152601960fa1b6064820152608490fd5b60405162461bcd60e51b815260206004820152602360248201527f446174615661756c743a20496e76616c6964206d61696e74656e616e6365207460448201526279706560e81b6064820152608490fd5b60405162461bcd60e51b815260206004820152602f60248201527f446174615661756c743a204e6f7420617574686f72697a656420746f2072656360448201526e6f7264206d61696e74656e616e636560881b6064820152608490fd5b50335f9081525f5160206147605f395f51905f52602052604090205460ff166116e4565b50335f9081525f5160206147e05f395f51905f52602052604090205460ff166116dd565b611ec0915060203d6020116102c5576102b781836139b8565b8d610252565b346102d7576024611ed6366138d8565b5f54604051637461976d60e01b815260048101859052939492939260209184919082906001600160a01b03165afa9182156102cc57611f3692611f1f915f9161061e5750613b1f565b835f5260086020526104f960405f20548410613c8d565b825f5260086020528160405f2054821161219c575b611f5491613cd9565b90611f5e82613ce6565b92611f6c60405194856139b8565b828452601f19611f7b84613ce6565b015f5b81811061214c5750505f5b83811061208457846040518091602082016020835281518091526040830190602060408260051b8601019301915f905b828210611fc857505050500390f35b919360019193955060208091603f1989820301855287519060ff825116815260ff83830151168382015261010061203f612013604085015161012060408601526101208501906138f2565b6060850151880b606085015261ffff608086015116608085015260a085015184820360a08601526138f2565b926001600160401b0360c08201511660c08401526001600160401b0360e08201511660e084015281878060a01b03910151169101529601920192018594939192611fb9565b600190825f5260086020526120a660405f206120a08387613c80565b90613e98565b50604051906120b482613980565b60ff8154818116845260081c1660208301526120d1848201613d62565b604083015261ffff600282015480860b606085015260101c1660808301526120fb60038201613d62565b60a08301526001600160401b03600482015481811660c085015260401c1660e08301526005848060a01b039101541661010082015261213a8288613d16565b526121458187613d16565b5001611f89565b60209060405161215b81613980565b5f81525f83820152606060408201525f60608201525f6080820152606060a08201525f60c08201525f60e08201525f61010082015282828901015201611f7e565b50505f8281526008602052604090205481611f4b565b346102d7575f3660031901126102d75760206040517feefb95e842a3287179d933b4460be539a1d5af11aa8b325bb45c5c8dc92de4ed8152f35b346102d75760403660031901126102d7576122056138c2565b6004355f525f5160206147c05f395f51905f5260205260405f209060018060a01b03165f52602052602060ff60405f2054166040519015158152f35b346102d75760203660031901126102d7576004355f52600b602052602060405f2054604051908152f35b346102d75760203660031901126102d7576106c56122876138ac565b61228f613ffb565b7f3c9097c10f7e1eae9b190812e1f9842fb237e9fb2ed43764725aa007bcc1707c5f525f5160206147c05f395f51905f526020527f53e73bb5321ec6e3acb7df116b0734fdd287d9624e3767242fee7e35f5890faf546122ee906140b3565b614440565b346102d7575f3660031901126102d7575f546040516001600160a01b039091168152602090f35b346102d75761232836613a1e565b612330613ffb565b5f54604051637461976d60e01b81526004810184905290602090829060249082906001600160a01b03165afa80156102cc57612372915f9161046a5750613b1f565b815f52600260205260405f20815f5260205261239760ff60405f205460081c16613e34565b815f52600160205260405f20815f526020525f6040812055815f52600260205260405f20815f526020525f6040812055815f52600360205260405f20905f5b8254808210156124cc57826123eb8386613c23565b90549060031b1c1461240057506001016123d6565b9192915f198101908111610ac65761242c61241e6124429285613c23565b90549060031b1c9284613c23565b819391549060031b91821b915f19901b19161790565b9055805480156124b8575f19019061245a8282613c23565b8154905f199060031b1b19169055555b815f52600460205260405f206124808154613e8c565b905561248d600554613e8c565b60055533917f04c0d8678b97d2a770807ca364e49634c1b71235d5dcd77425cbc12a0b0ddc815f80a4005b634e487b7160e01b5f52603160045260245ffd5b5050905061246a565b346102d75760203660031901126102d7576004355f526004602052602060405f2054604051908152f35b346102d7575f3660031901126102d75760206040517fa49807205ce4d355092ef5a8a18f56e8913cf4a201fbe287825b095693c217758152f35b346102d7575f3660031901126102d75760206040517f59a1c48e5837ad7a7f3dcedcbe129bf3249ec4fbf651fd4f5e2600ead39fe2f58152f35b346102d7575f3660031901126102d7576020600554604051908152f35b346102d75760403660031901126102d75760043560243590600682101591826102d7575f54604051637461976d60e01b81526004810184905290602090829060249082906001600160a01b03165afa80156102cc576125f5915f916127915750613b1f565b815f52600360205260405f2090604051808360208295549384815201905f5260205f20925f5b818110612778575050612630925003836139b8565b5f915f5b815181101561269357845f52600260205260405f206126538284613d16565b515f526020528560ff60405f2054169061045657600681101561045657831461267f575b600101612634565b9261268b600191613c72565b939050612677565b509290926126a96126a384613e02565b93613e02565b905f925f5b825181101561274e57815f52600260205260405f206126cd8285613d16565b515f526020528760ff60405f205416906104565760068110156104565787146126f9575b6001016126ae565b9361274660019161270a8786613d16565b51612715828a613d16565b52835f528260205260405f2061272b8887613d16565b515f5260205260405f20546127408288613d16565b52613c72565b9490506126f1565b61276a8661142f86604051938493604085526040850190613916565b908382036020850152613916565b845483526001948501948794506020909301920161261b565b6127aa915060203d6020116102c5576102b781836139b8565b85610252565b346102d75760203660031901126102d7576106c56127cc6138ac565b6127d4613ffb565b7feefb95e842a3287179d933b4460be539a1d5af11aa8b325bb45c5c8dc92de4ed5f525f5160206147c05f395f51905f526020527f78025438c780f90d78bdfcb739540ca3e87135368dbec2fc3733c1032612303054612833906140b3565b614387565b346102d7575f3660031901126102d7577f00000000000000000000000000000000000000000000000000000000000000006001600160a01b0316300361288f5760206040515f5160206147805f395f51905f528152f35b63703e46dd60e11b5f5260045ffd5b346102d75760203660031901126102d7576106c56128ba6138ac565b6128c2613ffb565b7f59a1c48e5837ad7a7f3dcedcbe129bf3249ec4fbf651fd4f5e2600ead39fe2f55f525f5160206147c05f395f51905f526020527fc3e71cdf4d6b19b51728813415f497e36084f42794ee08da6ceade2e0e3ab21354612921906140b3565b6142ce565b60403660031901126102d75761293a6138ac565b6024356001600160401b0381116102d757366023820112156102d75761296a9036906024816004013591016139d9565b906001600160a01b037f000000000000000000000000000000000000000000000000000000000000000016308114908115612acf575b5061288f576129ad613ffb565b6040516352d1902d60e01b81526001600160a01b0382169290602081600481875afa5f9181612a9b575b506129ef5783634c9c8ce360e01b5f5260045260245ffd5b805f5160206147805f395f51905f52859203612a895750823b15612a77575f5160206147805f395f51905f5280546001600160a01b031916821790557fbc7cd75a20ee27fd9adebab32041f755214dbc6bffa90cc0225b39da2e5c2d3b5f80a2805115612a5f576106c591614693565b505034612a6857005b63b398979f60e01b5f5260045ffd5b634c9c8ce360e01b5f5260045260245ffd5b632a87526960e21b5f5260045260245ffd5b9091506020813d602011612ac7575b81612ab7602093836139b8565b810103126102d7575190856129d7565b3d9150612aaa565b5f5160206147805f395f51905f52546001600160a01b031614159050836129a0565b346102d75760203660031901126102d7575f54604051637461976d60e01b81526004803590820181905291602090829060249082906001600160a01b03165afa80156102cc57612b47915f916115a05750613b1f565b5f52600360205260405f206040519081602082549182815201915f5260205f20905f5b818110612b955761142f85612b81818703826139b8565b604051918291602083526020830190613916565b8254845260209093019260019283019201612b6a565b346102d75760403660031901126102d757612bc46138ac565b612bcc6138c2565b905f5160206148005f395f51905f5254916001600160401b0360ff8460401c1615931680159081612da7575b6001149081612d9d575b159081612d94575b50612d85578260016001600160401b03195f5160206148005f395f51905f525416175f5160206148005f395f51905f5255612d55575b60ff5f5160206148005f395f51905f525460401c1615612d46576001600160a01b0316908115612cf65780612c77612c87926140f9565b50612c8181614195565b50614228565b506bffffffffffffffffffffffff60a01b5f5416175f55612ca457005b60ff60401b195f5160206148005f395f51905f5254165f5160206148005f395f51905f52557fc7f505b2f371ae2175ee4913f4499e1f2633a7b5936321eed1cdaeb6115181d2602060405160018152a1005b60405162461bcd60e51b815260206004820152602260248201527f446174615661756c743a20496e76616c69642042617474657279526567697374604482015261727960f01b6064820152608490fd5b631afcd79f60e31b5f5260045ffd5b600160401b60ff60401b195f5160206148005f395f51905f525416175f5160206148005f395f51905f5255612c40565b63f92ee8a960e01b5f5260045ffd5b90501584612c0a565b303b159150612c02565b849150612bf8565b346102d75760403660031901126102d7576004356024356001600160401b0381116102d757366023820112156102d7578060040135906001600160401b0382116102d7573660248360051b830101116102d7575f54604051637461976d60e01b81526004810185905290602090829060249082906001600160a01b03165afa80156102cc57612e44915f916127915750613b1f565b612e4d82613e02565b905f5b83811015612e8b57600190855f528160205260405f2060248260051b850101355f5260205260405f2054612e848286613d16565b5201612e50565b6040516020808252819061142f90820186613916565b346102d7576024612eb1366138d8565b5f54604051637461976d60e01b815260048101859052939492939260209184919082906001600160a01b03165afa9182156102cc57612f1192612efa915f9161061e5750613b1f565b835f5260076020526104f960405f20548410613c8d565b825f5260076020528160405f20548211613170575b612f2f91613cd9565b90612f3982613ce6565b92612f4760405194856139b8565b828452601f19612f5684613ce6565b015f5b8181106131265750505f5b83811061306157846040518091602082016020835281518091526040830190602060408260051b8601019301915f905b828210612fa357505050500390f35b919360019193955060208091603f1989820301855287519060ff825116815260e061301c61300a612ff8612fe687870151610100898801526101008701906138f2565b604087015186820360408801526138f2565b606086015185820360608701526138f2565b608085015184820360808601526138f2565b926001600160401b0360a08201511660a08401526001600160401b0360c08201511660c084015281878060a01b03910151169101529601920192018594939192612f94565b600190825f52600760205261308360405f2061307d8387613c80565b90613cfd565b506040519061309182613964565b60ff81541682526130a3848201613d62565b60208301526130b460028201613d62565b60408301526130c560038201613d62565b60608301526130d660048201613d62565b60808301526001600160401b03600582015481811660a085015260401c1660c08301526006848060a01b039101541660e08201526131148288613d16565b5261311f8187613d16565b5001612f64565b60209060405161313581613964565b5f815260608382015260606040820152606080820152606060808201525f60a08201525f60c08201525f60e082015282828901015201612f59565b50505f8281526007602052604090205481612f26565b346102d75760803660031901126102d75760643560243560043560443560068410156102d7576131b4614057565b5f54604051637461976d60e01b81526004810184905290602090829060249082906001600160a01b03165afa80156102cc576131f6915f9161061e5750613b1f565b613201831515613b75565b61320c811515613bc0565b5f82815260026020908152604080832086845282528083205485845260018352818420878552909252918290208054908490559151426001600160401b0316929160081c60ff16159061325e81613949565b6132688882613c17565b6020810160018152604082018581526060830190338252885f52600260205260405f208a5f5260205260405f20935160068110156104565784549351915192516001600160f01b031990941660ff919091161790151560081b61ff00161760109190911b69ffffffffffffffff0000161760509190911b600160501b600160f01b03161790551561336857507f375d17d4bbd29798dccc56b21e04cced4d42d3656a8c203ce79dea833666573f91606091845f52600360205261332e8660405f20613c4c565b845f52600460205260405f206133448154613c72565b9055613351600554613c72565b6005556040519182523360208301526040820152a4005b907fcffb51b1bad87c6c25b9ea8b7aa97390bf2cb87fd1c547cb42b970c6f60fe5b29394955060809260405192835260208301523360408301526060820152a3005b346102d75760403660031901126102d7576133c36138c2565b336001600160a01b038216036133df576106c5906004356145f7565b63334bd91960e11b5f5260045ffd5b346102d75760403660031901126102d7576106c560043561340d6138c2565b90613433610e99825f525f5160206147c05f395f51905f52602052600160405f20015490565b614566565b346102d75760403660031901126102d7576004356024356001600160401b0381116102d757366023820112156102d7578060040135916001600160401b0383116102d75736602460608502840101116102d757613493614057565b5f54604051637461976d60e01b81526004810183905290602090829060249082906001600160a01b03165afa80156102cc576134d5915f916127915750613b1f565b82156136ec57603283116136975782905f5f936001600160401b034216945b8481101561363957606081028201602481013590613513821515613b75565b6064604482013591613526831515613bc0565b875f52600260205260405f20845f5260205260ff60405f205460081c161592885f52600160205260405f20855f5260205260405f2055013560068110156102d75761357d6040519161357783613949565b82613c17565b6020810160018152604082018a81526060830190338252895f52600260205260405f20865f5260205260405f20935160068110156104565784549351915192516001600160f01b031990941660ff919091161790151560081b61ff00161760109190911b69ffffffffffffffff0000161760509190911b600160501b600160f01b0316179055613611575b506001016134f4565b6001919361362d61363292875f52600360205260405f20613c4c565b613c72565b9290613608565b50506136618491835f52600460205260405f20613657828254613c80565b9055600554613c80565b60055560405192835260208301527f5110ee4b89a396012b337fd40a58464b2d8c80a55e82ce47c984c0539a7b2df060403393a3005b60405162461bcd60e51b815260206004820152602760248201527f446174615661756c743a20546f6f206d616e7920706172616d657465727320286044820152666d61782035302960c81b6064820152608490fd5b60405162461bcd60e51b815260206004820152601e60248201527f446174615661756c743a20456d707479207570646174657320617272617900006044820152606490fd5b346102d75760203660031901126102d75760206137686004355f525f5160206147c05f395f51905f52602052600160405f20015490565b604051908152f35b346102d75760203660031901126102d7576137896138ac565b613791613ffb565b6001600160a01b031680156137ed575f80546001600160a01b0319811683179091556040513381526001600160a01b03909116907ff7504acd40d47b88de0867759d1a8d672d7b9aeef041c2442cfbe7322d1d354b90602090a3005b60405162461bcd60e51b815260206004820152601a60248201527f446174615661756c743a20496e76616c696420616464726573730000000000006044820152606490fd5b346102d7575f3660031901126102d75760206040515f5160206147a05f395f51905f528152f35b346102d75760203660031901126102d7576004359063ffffffff60e01b82168092036102d757602091637965db0b60e01b811490811561389b575b5015158152f35b6301ffc9a760e01b14905083613894565b600435906001600160a01b03821682036102d757565b602435906001600160a01b03821682036102d757565b60609060031901126102d757600435906024359060443590565b805180835260209291819084018484015e5f828201840152601f01601f1916010190565b90602080835192838152019201905f5b8181106139335750505090565b8251845260209384019390920191600101613926565b608081019081106001600160401b03821117610b9e57604052565b61010081019081106001600160401b03821117610b9e57604052565b61012081019081106001600160401b03821117610b9e57604052565b61014081019081106001600160401b03821117610b9e57604052565b90601f801991011681019081106001600160401b03821117610b9e57604052565b9291926001600160401b038211610b9e5760405191613a02601f8201601f1916602001846139b8565b8294818452818301116102d7578281602093845f960137010152565b60409060031901126102d7576004359060243590565b6024359060ff821682036102d757565b9181601f840112156102d7578235916001600160401b0383116102d757602083818601950101116102d757565b6101209061ffff815116835261ffff602082015116602084015263ffffffff604082015116604084015263ffffffff6060820151166060840152608081015160010b608084015260a081015160010b60a084015261ffff60c08201511660c084015261ffff60e08201511660e08401526001600160401b03610100820151166101008401528160018060a01b0391015116910152565b908160209103126102d7575180151581036102d75790565b15613b2657565b60405162461bcd60e51b815260206004820152602160248201527f446174615661756c743a204261747465727920646f6573206e6f7420657869736044820152601d60fa1b6064820152608490fd5b15613b7c57565b606460405162461bcd60e51b815260206004820152602060248201527f446174615661756c743a20496e76616c696420706172616d65746572206b65796044820152fd5b15613bc757565b60405162461bcd60e51b815260206004820152602260248201527f446174615661756c743a20496e76616c696420706172616d657465722076616c604482015261756560f01b6064820152608490fd5b60068210156104565752565b8054821015613c38575f5260205f2001905f90565b634e487b7160e01b5f52603260045260245ffd5b805490600160401b821015610b9e578161242c916001613c6e94018155613c23565b9055565b5f198114610ac65760010190565b91908201809211610ac657565b15613c9457565b60405162461bcd60e51b815260206004820152601e60248201527f446174615661756c743a20496e76616c696420737461727420696e64657800006044820152606490fd5b91908203918211610ac657565b6001600160401b038111610b9e5760051b60200190565b8054821015613c38575f52600760205f20910201905f90565b8051821015613c385760209160051b010190565b90600182811c92168015613d58575b6020831014613d4457565b634e487b7160e01b5f52602260045260245ffd5b91607f1691613d39565b9060405191825f825492613d7584613d2a565b8084529360018116908115613de05750600114613d9c575b50613d9a925003836139b8565b565b90505f9291925260205f20905f915b818310613dc4575050906020613d9a928201015f613d8d565b6020919350806001915483858901015201910190918492613dab565b905060209250613d9a94915060ff191682840152151560051b8201015f613d8d565b90613e0c82613ce6565b613e1960405191826139b8565b8281528092613e2a601f1991613ce6565b0190602036910137565b15613e3b57565b60405162461bcd60e51b815260206004820152602360248201527f446174615661756c743a20506172616d6574657220646f6573206e6f742065786044820152621a5cdd60ea1b6064820152608490fd5b8015610ac6575f190190565b8054821015613c38575f52600660205f20910201905f90565b15613eb857565b60405162461bcd60e51b815260206004820152601f60248201527f446174615661756c743a204465736372697074696f6e207265717569726564006044820152606490fd5b60405190613f0a8261399c565b5f610120838281528260208201528260408201528260608201528260808201528260a08201528260c08201528260e0820152826101008201520152565b8054821015613c38575f5260205f209060011b01905f90565b90604051613f6d8161399c565b61012081936001600160401b03815461ffff8116855261ffff8160101c16602086015263ffffffff8160201c16604086015263ffffffff8160401c1660608601528060601c60010b60808601528060701c60010b60a086015261ffff8160801c1660c086015261ffff8160901c1660e086015260a01c166101008401526001808060a01b0391015416910152565b335f9081525f5160206147605f395f51905f52602052604090205460ff161561402057565b63e2517d3f60e01b5f52336004527fa49807205ce4d355092ef5a8a18f56e8913cf4a201fbe287825b095693c2177560245260445ffd5b335f9081527f12f73be99a4fa0de528366f6ed2e970f4c99424b1b8b7e090f1028dc3880af6f602052604090205460ff161561408f57565b63e2517d3f60e01b5f52336004525f5160206147a05f395f51905f5260245260445ffd5b5f8181525f5160206147c05f395f51905f526020908152604080832033845290915290205460ff16156140e35750565b63e2517d3f60e01b5f523360045260245260445ffd5b6001600160a01b0381165f9081527fb7db2dd08fcb62d0c9e08c51941cae53c267786a0b75803fb7960902fc8ef97d602052604090205460ff16614190576001600160a01b03165f8181527fb7db2dd08fcb62d0c9e08c51941cae53c267786a0b75803fb7960902fc8ef97d60205260408120805460ff191660011790553391905f5160206147205f395f51905f528180a4600190565b505f90565b6001600160a01b0381165f9081525f5160206147605f395f51905f52602052604090205460ff16614190576001600160a01b03165f8181525f5160206147605f395f51905f5260205260408120805460ff191660011790553391907fa49807205ce4d355092ef5a8a18f56e8913cf4a201fbe287825b095693c21775905f5160206147205f395f51905f529080a4600190565b6001600160a01b0381165f9081527f12f73be99a4fa0de528366f6ed2e970f4c99424b1b8b7e090f1028dc3880af6f602052604090205460ff16614190576001600160a01b03165f8181527f12f73be99a4fa0de528366f6ed2e970f4c99424b1b8b7e090f1028dc3880af6f60205260408120805460ff191660011790553391905f5160206147a05f395f51905f52905f5160206147205f395f51905f529080a4600190565b6001600160a01b0381165f9081527fc3e71cdf4d6b19b51728813415f497e36084f42794ee08da6ceade2e0e3ab212602052604090205460ff16614190576001600160a01b03165f8181527fc3e71cdf4d6b19b51728813415f497e36084f42794ee08da6ceade2e0e3ab21260205260408120805460ff191660011790553391907f59a1c48e5837ad7a7f3dcedcbe129bf3249ec4fbf651fd4f5e2600ead39fe2f5905f5160206147205f395f51905f529080a4600190565b6001600160a01b0381165f9081527f78025438c780f90d78bdfcb739540ca3e87135368dbec2fc3733c1032612302f602052604090205460ff16614190576001600160a01b03165f8181527f78025438c780f90d78bdfcb739540ca3e87135368dbec2fc3733c1032612302f60205260408120805460ff191660011790553391907feefb95e842a3287179d933b4460be539a1d5af11aa8b325bb45c5c8dc92de4ed905f5160206147205f395f51905f529080a4600190565b6001600160a01b0381165f9081525f5160206147e05f395f51905f52602052604090205460ff16614190576001600160a01b03165f8181525f5160206147e05f395f51905f5260205260408120805460ff191660011790553391907f3c9097c10f7e1eae9b190812e1f9842fb237e9fb2ed43764725aa007bcc1707c905f5160206147205f395f51905f529080a4600190565b6001600160a01b0381165f9081525f5160206147405f395f51905f52602052604090205460ff16614190576001600160a01b03165f8181525f5160206147405f395f51905f5260205260408120805460ff191660011790553391907f09dbbc4f4c1777380e818de38ff2b73d55e543b5f4634694a1e9215097fe26a0905f5160206147205f395f51905f529080a4600190565b5f8181525f5160206147c05f395f51905f52602090815260408083206001600160a01b038616845290915290205460ff166145f1575f8181525f5160206147c05f395f51905f52602090815260408083206001600160a01b0395909516808452949091528120805460ff19166001179055339291905f5160206147205f395f51905f529080a4600190565b50505f90565b5f8181525f5160206147c05f395f51905f52602090815260408083206001600160a01b038616845290915290205460ff16156145f1575f8181525f5160206147c05f395f51905f52602090815260408083206001600160a01b0395909516808452949091528120805460ff19169055339291907ff6391f5c32d9c69d2a47ea670b442974b53935d1edc7fd64eb21e047a839171b9080a4600190565b905f8091602081519101845af4808061470c575b156146c75750506040513d81523d5f602083013e60203d82010160405290565b156146ec57639996b31560e01b5f9081526001600160a01b0391909116600452602490fd5b3d156146fd576040513d5f823e3d90fd5b63d6bda27560e01b5f5260045ffd5b503d1515806146a75750813b15156146a756fe2f8788117e7eff1d82e926ec794901d17c78024a50270940304540a733656f0dc5f5d6eefac11226c8516d58a9f3d1edf60f9d4d148c4bb3632265eafdcaf017b16e88c42fd4e48df2dd6a2eabd6bc9aec654ec170056b470819f8892cc6431c360894a13ba1a3210667c828492db98dca3e2076cc3735a920a3ca505d382bbc5751aa34d29fd25fdb4ef9998449c81f936f0ffd0e014d19375a2ea4fb39d1f602dd7bc7dec4dceedda775e58dd541e08a116c6c53815c0bd028192f7b62680053e73bb5321ec6e3acb7df116b0734fdd287d9624e3767242fee7e35f5890faef0c57e16840df040f15088dc2f81fe391c3923bec73e23a9662efc9c229c6a00a264697066735822122021124878f84e9c2b36bf76aa5681ce39d13093c151a2fca8837f15481f270fb664736f6c634300081c0033f0c57e16840df040f15088dc2f81fe391c3923bec73e23a9662efc9c229c6a00","linkReferences":{}},"methodIdentifiers":{"ADMIN_ROLE()":"75b238fc","AUDITOR_ROLE()":"6e1d616e","DATA_WRITER_ROLE()":"03117eb5","DEFAULT_ADMIN_ROLE()":"a217fddf","FLEET_OPERATOR_ROLE()":"df1474ab","MANUFACTURER_ROLE()":"965288b0","OEM_ROLE()":"a55fb7d2","UPGRADE_INTERFACE_VERSION()":"ad3cb1cc","batchStoreParameters(bytes32,(bytes32,bytes32,uint8)[])":"2e4743ef","batteryRegistry()":"83ca649b","criticalEventCount(bytes32)":"90cbeb5f","deleteParameter(bytes32,bytes32)":"7dc49ab0","getBatchParameters(bytes32,bytes32[])":"401d064a","getBatteryParameters(bytes32)":"4e14e507","getCriticalEvents(bytes32,uint256,uint256)":"96da16c8","getLatestTelemetry(bytes32)":"99f533ae","getMaintenanceRecords(bytes32,uint256,uint256)":"3beb1e18","getParameter(bytes32,bytes32)":"ff4d2e25","getParameterWithMetadata(bytes32,bytes32)":"f7c4f3f8","getParametersByCategory(bytes32,uint8)":"56798d67","getRoleAdmin(bytes32)":"248a9ca3","getTelemetryRecords(bytes32,uint256,uint256)":"f6c57447","grantAuditorRole(address)":"50c17b10","grantDataWriterRole(address)":"c184ec3a","grantFleetOperatorRole(address)":"ef380861","grantManufacturerRole(address)":"55c4281e","grantOEMRole(address)":"8428ed71","grantRole(bytes32,address)":"2f2ff15d","hasRole(bytes32,address)":"91d14854","initialize(address,address)":"485cc955","maintenanceCount(bytes32)":"a5e4e100","parameterCount(bytes32)":"7da60067","parameterExists(bytes32,bytes32)":"c4b99143","proxiableUUID()":"52d1902d","recordCriticalEvent(bytes32,uint8,uint8,string,int16,uint16,string,uint64)":"d6a78726","recordMaintenance(bytes32,uint8,string,string,string,string,uint64)":"9754bca3","recordTelemetry(bytes32,uint16,uint16,uint32,uint32,int16,int16,uint16,uint16)":"d09b9d51","renounceRole(bytes32,address)":"36568abe","revokeRole(bytes32,address)":"d547741f","setBatteryRegistry(address)":"13542088","storeParameter(bytes32,bytes32,bytes32,uint8)":"39646291","supportsInterface(bytes4)":"01ffc9a7","telemetryCount(bytes32)":"f93b03b4","totalParametersStored()":"67ceef51","upgradeToAndCall(address,bytes)":"4f1ef286"},"id":43}